{
 "cells": [
  {
   "cell_type": "code",
   "execution_count": 31,
   "metadata": {},
   "outputs": [],
   "source": [
    "############## PLEASE RUN THIS CELL FIRST! ###################\n",
    "\n",
    "# import everything and define a test runner function\n",
    "from importlib import reload\n",
    "from helper import run\n",
    "import ecc\n",
    "import helper\n",
    "import tx\n",
    "import script"
   ]
  },
  {
   "cell_type": "code",
   "execution_count": 2,
   "metadata": {},
   "outputs": [
    {
     "name": "stdout",
     "output_type": "stream",
     "text": [
      "True\n"
     ]
    }
   ],
   "source": [
    "from tx import Tx\n",
    "from io import BytesIO\n",
    "raw_tx = ('0100000001813f79011acb80925dfe69b3def355fe914bd1d96a3f5f71bf8303c6a989c7d1000000006b483045022100ed81ff192e75a3fd2304004dcadb746fa5e24c5031ccfcf21320b0277457c98f02207a986d955c6e0cb35d446a89d3f56100f4d7f67801c31967743a9c8e10615bed01210349fc4e631e3624a545de3f89f5d8684c7b8138bd94bdd531d2e213bf016b278afeffffff02a135ef01000000001976a914bc3b654dca7e56b04dca18f2566cdaf02e8d9ada88ac99c39800000000001976a9141c4bc762dd5423e332166702cb75f40df79fea1288ac19430600')\n",
    "stream = BytesIO(bytes.fromhex(raw_tx))\n",
    "transaction = Tx.parse(stream)\n",
    "print(transaction.fee() >= 0)"
   ]
  },
  {
   "cell_type": "code",
   "execution_count": 3,
   "metadata": {},
   "outputs": [
    {
     "name": "stdout",
     "output_type": "stream",
     "text": [
      "True\n"
     ]
    }
   ],
   "source": [
    "from ecc import S256Point, Signature\n",
    "sec = bytes.fromhex('0349fc4e631e3624a545de3f89f5d8684c7b8138bd94bdd531d2e213bf016b278a')\n",
    "der = bytes.fromhex('3045022100ed81ff192e75a3fd2304004dcadb746fa5e24c5031ccfcf21320b0277457c98f02207a986d955c6e0cb35d446a89d3f56100f4d7f67801c31967743a9c8e10615bed')\n",
    "z = 0x27e0c5994dec7824e56dec6b2fcb342eb7cdb0d0957c2fce9882f715e85d81a6\n",
    "point = S256Point.parse(sec)\n",
    "signature = Signature.parse(der)\n",
    "print(point.verify(z, signature))"
   ]
  },
  {
   "cell_type": "code",
   "execution_count": 4,
   "metadata": {},
   "outputs": [
    {
     "name": "stdout",
     "output_type": "stream",
     "text": [
      "0x27e0c5994dec7824e56dec6b2fcb342eb7cdb0d0957c2fce9882f715e85d81a6\n"
     ]
    }
   ],
   "source": [
    "from helper import hash256\n",
    "modified_tx = bytes.fromhex('0100000001813f79011acb80925dfe69b3def355fe914bd1d96a3f5f71bf8303c6a989c7d1000000001976a914a802fc56c704ce87c42d7c92eb75e7896bdc41ae88acfeffffff02a135ef01000000001976a914bc3b654dca7e56b04dca18f2566cdaf02e8d9ada88ac99c39800000000001976a9141c4bc762dd5423e332166702cb75f40df79fea1288ac1943060001000000')\n",
    "h256 = hash256(modified_tx)\n",
    "z = int.from_bytes(h256, 'big')\n",
    "print(hex(z))"
   ]
  },
  {
   "cell_type": "code",
   "execution_count": 5,
   "metadata": {},
   "outputs": [
    {
     "data": {
      "text/plain": [
       "True"
      ]
     },
     "execution_count": 5,
     "metadata": {},
     "output_type": "execute_result"
    }
   ],
   "source": [
    "from ecc import S256Point, Signature\n",
    "sec = bytes.fromhex('0349fc4e631e3624a545de3f89f5d8684c7b8138bd94bdd531d2e213bf016b278a')\n",
    "der = bytes.fromhex('3045022100ed81ff192e75a3fd2304004dcadb746fa5e24c5031ccfcf21320b0277457c98f02207a986d955c6e0cb35d446a89d3f56100f4d7f67801c31967743a9c8e10615bed')\n",
    "z = 0x27e0c5994dec7824e56dec6b2fcb342eb7cdb0d0957c2fce9882f715e85d81a6\n",
    "point = S256Point.parse(sec)\n",
    "signature = Signature.parse(der)\n",
    "point.verify(z, signature)"
   ]
  },
  {
   "cell_type": "markdown",
   "metadata": {},
   "source": [
    "### Exercise 1\n",
    "\n",
    "Write the `sig_hash` method for the `Tx` class.\n",
    "\n",
    "#### Make [this test](/edit/code-ch07/tx.py) pass: `tx.py:TxTest:test_sig_hash`"
   ]
  },
  {
   "cell_type": "code",
   "execution_count": 19,
   "metadata": {},
   "outputs": [
    {
     "name": "stderr",
     "output_type": "stream",
     "text": [
      ".\n",
      "----------------------------------------------------------------------\n",
      "Ran 1 test in 0.002s\n",
      "\n",
      "OK\n"
     ]
    }
   ],
   "source": [
    "# Exercise 1\n",
    "\n",
    "reload(tx)\n",
    "run(tx.TxTest(\"test_sig_hash\"))"
   ]
  },
  {
   "cell_type": "markdown",
   "metadata": {},
   "source": [
    "### Exercise 2\n",
    "\n",
    "Write the `verify_input` method for the `Tx` class. You will want to use the `TxIn.script_pubkey()`, `Tx.sig_hash()` and `Script.evaluate()` methods.\n",
    "\n",
    "#### Make [this test](/edit/code-ch07/tx.py) pass: `tx.py:TxTest:test_verify_p2pkh`"
   ]
  },
  {
   "cell_type": "code",
   "execution_count": 27,
   "metadata": {},
   "outputs": [
    {
     "name": "stderr",
     "output_type": "stream",
     "text": [
      ".\n",
      "----------------------------------------------------------------------\n",
      "Ran 1 test in 0.210s\n",
      "\n",
      "OK\n"
     ]
    }
   ],
   "source": [
    "# Exercise 2\n",
    "\n",
    "reload(tx)\n",
    "run(tx.TxTest(\"test_verify_p2pkh\"))"
   ]
  },
  {
   "cell_type": "code",
   "execution_count": 28,
   "metadata": {},
   "outputs": [
    {
     "name": "stdout",
     "output_type": "stream",
     "text": [
      "tx: cd30a8da777d28ef0e61efe68a9f7c559c1d3e5bcd7b265c850ccb4068598d11\n",
      "version: 1\n",
      "tx_ins:\n",
      "0d6fe5213c0b3291f208cba8bfb59b7476dffacc4e5cb66f6eb20a080843a299:13\n",
      "tx_outs:\n",
      "33000000:OP_DUP OP_HASH160 d52ad7ca9b3d096a38e752c2018e6fbc40cdf26f OP_EQUALVERIFY OP_CHECKSIG\n",
      "10000000:OP_DUP OP_HASH160 507b27411ccf7f16f10297de6cef3f291623eddf OP_EQUALVERIFY OP_CHECKSIG\n",
      "locktime: 0\n"
     ]
    }
   ],
   "source": [
    "from helper import decode_base58, SIGHASH_ALL\n",
    "from script import p2pkh_script, Script\n",
    "from tx import TxIn, TxOut, Tx\n",
    "prev_tx = bytes.fromhex('0d6fe5213c0b3291f208cba8bfb59b7476dffacc4e5cb66f6eb20a080843a299')\n",
    "prev_index = 13\n",
    "tx_in = TxIn(prev_tx, prev_index)\n",
    "tx_outs = []\n",
    "change_amount = int(0.33*100000000)\n",
    "change_h160 = decode_base58('mzx5YhAH9kNHtcN481u6WkjeHjYtVeKVh2')\n",
    "change_script = p2pkh_script(change_h160)\n",
    "change_output = TxOut(amount=change_amount, script_pubkey=change_script)\n",
    "target_amount = int(0.1*100000000)\n",
    "target_h160 = decode_base58('mnrVtF8DWjMu839VW3rBfgYaAfKk8983Xf')\n",
    "target_script = p2pkh_script(target_h160)\n",
    "target_output = TxOut(amount=target_amount, script_pubkey=target_script)\n",
    "tx_obj = Tx(1, [tx_in], [change_output, target_output], 0, True)\n",
    "print(tx_obj)"
   ]
  },
  {
   "cell_type": "code",
   "execution_count": 32,
   "metadata": {},
   "outputs": [
    {
     "ename": "NotImplementedError",
     "evalue": "",
     "output_type": "error",
     "traceback": [
      "\u001b[0;31m---------------------------------------------------------------------------\u001b[0m",
      "\u001b[0;31mNotImplementedError\u001b[0m                       Traceback (most recent call last)",
      "Cell \u001b[0;32mIn[32], line 3\u001b[0m\n\u001b[1;32m      1\u001b[0m \u001b[38;5;28;01mfrom\u001b[39;00m \u001b[38;5;21;01mecc\u001b[39;00m \u001b[38;5;28;01mimport\u001b[39;00m PrivateKey\n\u001b[1;32m      2\u001b[0m \u001b[38;5;28;01mfrom\u001b[39;00m \u001b[38;5;21;01mhelper\u001b[39;00m \u001b[38;5;28;01mimport\u001b[39;00m SIGHASH_ALL\n\u001b[0;32m----> 3\u001b[0m z \u001b[38;5;241m=\u001b[39m \u001b[43mtransaction\u001b[49m\u001b[38;5;241;43m.\u001b[39;49m\u001b[43msig_hash\u001b[49m\u001b[43m(\u001b[49m\u001b[38;5;241;43m0\u001b[39;49m\u001b[43m)\u001b[49m\n\u001b[1;32m      4\u001b[0m private_key \u001b[38;5;241m=\u001b[39m PrivateKey(secret\u001b[38;5;241m=\u001b[39m\u001b[38;5;241m8675309\u001b[39m)\n\u001b[1;32m      5\u001b[0m der \u001b[38;5;241m=\u001b[39m private_key\u001b[38;5;241m.\u001b[39msign(z)\u001b[38;5;241m.\u001b[39mder()\n",
      "File \u001b[0;32m~/proj/programmingbitcoin/code-ch07/tx.py:177\u001b[0m, in \u001b[0;36mTx.sig_hash\u001b[0;34m(self, input_index)\u001b[0m\n\u001b[1;32m    175\u001b[0m     script_sig = tx_input.script_pubkey(self.testnet)\n\u001b[1;32m    176\u001b[0m     serialization += TxIn(tx_input.prev_tx, tx_input.prev_index, script_sig, tx_input.sequence).serialize()\n\u001b[0;32m--> 177\u001b[0m # Otherwise, the ScriptSig is empty\n\u001b[1;32m    178\u001b[0m else:\n\u001b[1;32m    179\u001b[0m     script_sig = None\n\u001b[1;32m    180\u001b[0m     serialization += TxIn(tx_input.prev_tx, tx_input.prev_index, script_sig, tx_input.sequence).serialize()\n",
      "\u001b[0;31mNotImplementedError\u001b[0m: "
     ]
    }
   ],
   "source": [
    "from ecc import PrivateKey\n",
    "from helper import SIGHASH_ALL\n",
    "z = transaction.sig_hash(0)\n",
    "private_key = PrivateKey(secret=8675309)\n",
    "der = private_key.sign(z).der()\n",
    "sig = der + SIGHASH_ALL.to_bytes(1, 'big')\n",
    "sec = private_key.point.sec()\n",
    "script_sig = Script([sig, sec])\n",
    "transaction.tx_ins[0].script_sig = script_sig \n",
    "print(transaction.serialize().hex())"
   ]
  },
  {
   "cell_type": "code",
   "execution_count": 33,
   "metadata": {},
   "outputs": [
    {
     "name": "stdout",
     "output_type": "stream",
     "text": [
      "mn81594PzKZa9K3Jyy1ushpuEzrnTnxhVg\n"
     ]
    }
   ],
   "source": [
    "from ecc import PrivateKey\n",
    "from helper import hash256, little_endian_to_int\n",
    "secret = little_endian_to_int(hash256(b'Jimmy Song secret'))\n",
    "private_key = PrivateKey(secret)\n",
    "print(private_key.point.address(testnet=True))"
   ]
  },
  {
   "cell_type": "markdown",
   "metadata": {},
   "source": [
    "### Exercise 3\n",
    "\n",
    "Write the `sign_input` method for the `Tx` class.\n",
    "\n",
    "#### Make [this test](/edit/code-ch07/tx.py) pass: `tx.py:TxTest:test_sign_input`"
   ]
  },
  {
   "cell_type": "code",
   "execution_count": 34,
   "metadata": {},
   "outputs": [
    {
     "name": "stderr",
     "output_type": "stream",
     "text": [
      ".\n",
      "----------------------------------------------------------------------\n",
      "Ran 1 test in 0.197s\n",
      "\n",
      "OK\n"
     ]
    }
   ],
   "source": [
    "# Exercise 3\n",
    "\n",
    "reload(tx)\n",
    "run(tx.TxTest(\"test_sign_input\"))"
   ]
  },
  {
   "cell_type": "markdown",
   "metadata": {},
   "source": [
    "### Exercise 4\n",
    "\n",
    "Create a testnet transaction that sends 60% of a single UTXO to `mwJn1YPMq7y5F8J3LkC5Hxg9PHyZ5K4cFv`. The remaining amount minus fees should go back to your own change address. This should be a 1 input, 2 output transaction.\n",
    "\n",
    "You can broadcast the transaction at https://testnet.blockchain.info/pushtx"
   ]
  },
  {
   "cell_type": "code",
   "execution_count": 42,
   "metadata": {},
   "outputs": [
    {
     "name": "stdout",
     "output_type": "stream",
     "text": [
      "2000\n",
      "0100000001f19a460f2c9c41d3c3c371a5462887c9b9ff8cee848a0fbdbdaa28b43c49eafb000000006b483045022100e21c8e8d92a4cda206d23554637c48971b1fbad021e1daf1ca661a3c8db609f5022046fb3c2215c5860cdf2f7b2d8c2826319a0b4e843c4a17041b63eb613de9341501210375c694f26a7397b35b742c799873af35be775c2ad07276950801da38dcaeae4dffffffff0270170000000000001976a914ad346f8eb57dee9a37981716e498120ae80e44f788acd0070000000000001976a914600e9d765e8d1aa3aa88509c84ca93288f34a2e688ac00000000\n"
     ]
    }
   ],
   "source": [
    "# Exercise 4\n",
    "\n",
    "from ecc import PrivateKey\n",
    "from helper import decode_base58, SIGHASH_ALL\n",
    "from script import p2pkh_script, Script\n",
    "from tx import TxIn, TxOut, Tx\n",
    "\n",
    "# create 1 TxIn and 2 TxOuts\n",
    "# 1 of the TxOuts should be back to your address\n",
    "# the other TxOut should be to this address\n",
    "target_address = 'mwJn1YPMq7y5F8J3LkC5Hxg9PHyZ5K4cFv'\n",
    "\n",
    "# get the private key from the exercise in Chapter 4\n",
    "# change address should be the address generated from Chapter 4\n",
    "# select a passphrase here, add your email address into the passphrase for security\n",
    "# passphrase = b'your@email.address some secret only you know'\n",
    "passphrase = b'mytestnetcoinzZz'\n",
    "# https://blockstream.info/testnet/tx/fbea493cb428aabdbd0f8a84ee8cffb9c9872846a571c3c3d3419c2c0f469af1\n",
    "\n",
    "# secret = little_endian_to_int(hash256(passphrase))\n",
    "secret = little_endian_to_int(hash256(passphrase))\n",
    "# create a private key using your secret\n",
    "private_key = PrivateKey(secret)\n",
    "# print an address from the public point of the private key with testnet=True\n",
    "testnet_address = private_key.point.address(testnet=True)\n",
    "#print(testnet_address) # mpGrfwhFrqAH1bM1VY4oYT9otNsatWjpUE\n",
    "change_address = testnet_address \n",
    "\n",
    "# get the prev_tx and prev_index from the transaction where you got\n",
    "# some testnet coins\n",
    "prev_tx = bytes.fromhex('fbea493cb428aabdbd0f8a84ee8cffb9c9872846a571c3c3d3419c2c0f469af1')\n",
    "prev_index = 0\n",
    "# create a transaction input for the previous transaction with\n",
    "# the default ScriptSig and sequence\n",
    "tx_in = TxIn(prev_tx, prev_index)\n",
    "# target amount should be 60% of the output amount\n",
    "# 0.00010000 tBTC 10000 satoshis in testwallet UTXO\n",
    "#print(tx_in.value(testnet=True)) # 10000\n",
    "target_amount = int(0.6 * tx_in.value(testnet=True))\n",
    "# set the fee to some reasonable amount\n",
    "fee = int(0.2 * tx_in.value(testnet=True))\n",
    "# change amount = amount from the prev tx - target amount - fee\n",
    "change_amount = tx_in.value(testnet=True) - target_amount - fee\n",
    "print(change_amount)\n",
    "# create a transaction output for the target amount and address\n",
    "target_h160 = decode_base58(target_address)\n",
    "target_script = p2pkh_script(target_h160)\n",
    "target_output = TxOut(target_amount, target_script)\n",
    "# create a transaction output for the change amount and address\n",
    "change_h160 = decode_base58(change_address)\n",
    "change_script = p2pkh_script(change_h160)\n",
    "change_output = TxOut(change_amount, change_script)\n",
    "# create the transaction object\n",
    "tx_obj = Tx(1, [tx_in], [target_output, change_output], 0, testnet=True)\n",
    "# sign the one input in the transaction object using the private key\n",
    "tx_obj.sign_input(0, private_key)\n",
    "# print the transaction's serialization in hex\n",
    "print(tx_obj.serialize().hex())\n",
    "# broadcast at http://testnet.blockchain.info/pushtx\n",
    "# https://blockstream.info/testnet/tx/push\n",
    "\n",
    "# PUSHED TRANSACTION HERE:\n",
    "# https://blockstream.info/testnet/tx/b91d6d3d743a9b9358af75e085d8139f1712d3ec9537fafcafde66716d13f6fa"
   ]
  },
  {
   "cell_type": "code",
   "execution_count": 43,
   "metadata": {},
   "outputs": [
    {
     "data": {
      "text/plain": [
       "tx: b91d6d3d743a9b9358af75e085d8139f1712d3ec9537fafcafde66716d13f6fa\n",
       "version: 1\n",
       "tx_ins:\n",
       "fbea493cb428aabdbd0f8a84ee8cffb9c9872846a571c3c3d3419c2c0f469af1:0\n",
       "tx_outs:\n",
       "6000:OP_DUP OP_HASH160 ad346f8eb57dee9a37981716e498120ae80e44f7 OP_EQUALVERIFY OP_CHECKSIG\n",
       "2000:OP_DUP OP_HASH160 600e9d765e8d1aa3aa88509c84ca93288f34a2e6 OP_EQUALVERIFY OP_CHECKSIG\n",
       "locktime: 0"
      ]
     },
     "execution_count": 43,
     "metadata": {},
     "output_type": "execute_result"
    }
   ],
   "source": [
    "tx_obj"
   ]
  },
  {
   "cell_type": "code",
   "execution_count": 46,
   "metadata": {},
   "outputs": [
    {
     "ename": "UnicodeDecodeError",
     "evalue": "'utf-8' codec can't decode bytes in position 5-6: invalid continuation byte",
     "output_type": "error",
     "traceback": [
      "\u001b[0;31m---------------------------------------------------------------------------\u001b[0m",
      "\u001b[0;31mUnicodeDecodeError\u001b[0m                        Traceback (most recent call last)",
      "Cell \u001b[0;32mIn[46], line 1\u001b[0m\n\u001b[0;32m----> 1\u001b[0m \u001b[38;5;28;43mbytearray\u001b[39;49m\u001b[38;5;241;43m.\u001b[39;49m\u001b[43mfromhex\u001b[49m\u001b[43m(\u001b[49m\u001b[43mtx_obj\u001b[49m\u001b[38;5;241;43m.\u001b[39;49m\u001b[43mserialize\u001b[49m\u001b[43m(\u001b[49m\u001b[43m)\u001b[49m\u001b[38;5;241;43m.\u001b[39;49m\u001b[43mhex\u001b[49m\u001b[43m(\u001b[49m\u001b[43m)\u001b[49m\u001b[43m)\u001b[49m\u001b[38;5;241;43m.\u001b[39;49m\u001b[43mdecode\u001b[49m\u001b[43m(\u001b[49m\u001b[43m)\u001b[49m\n",
      "\u001b[0;31mUnicodeDecodeError\u001b[0m: 'utf-8' codec can't decode bytes in position 5-6: invalid continuation byte"
     ]
    }
   ],
   "source": [
    "\n",
    "bytearray.fromhex(tx_obj.serialize().hex()).decode()"
   ]
  },
  {
   "cell_type": "markdown",
   "metadata": {},
   "source": [
    "### Exercise 5\n",
    "\n",
    "Advanced: get some more testnet coins from a testnet faucet and create a 2 input, 1 output transaction. 1 input should be from the faucet, the other should be from the previous exercise, the output can be your own address.\n",
    "\n",
    "You can broadcast the transaction at https://testnet.blockchain.info/pushtx"
   ]
  },
  {
   "cell_type": "code",
   "execution_count": null,
   "metadata": {},
   "outputs": [],
   "source": [
    "# Exercise 5\n",
    "\n",
    "from ecc import PrivateKey\n",
    "from helper import decode_base58, SIGHASH_ALL\n",
    "from script import p2pkh_script, Script\n",
    "from tx import TxIn, TxOut, Tx\n",
    "\n",
    "# Create 2 TxIns, 1 from the Exercise 4 and 1 from a testnet faucet\n",
    "# Creat 1 TxOut to the address above\n",
    "target_address = 'mwJn1YPMq7y5F8J3LkC5Hxg9PHyZ5K4cFv'\n",
    "\n",
    "# get the private key from the exercise in Chapter 4\n",
    "\n",
    "# get the prev_tx and prev_index from the transaction where you got\n",
    "# some testnet coins\n",
    "# create the first transaction input with the default ScriptSig and\n",
    "# sequence\n",
    "# get the prev_tx and prev_index from the transaction in Exercise 4\n",
    "# create the second transaction input with the default ScriptSig and\n",
    "# sequence\n",
    "\n",
    "# set the fee to some reasonable amount\n",
    "# target amount should be the sum of the inputs - fee\n",
    "\n",
    "# create a transaction output for the amount and address\n",
    "\n",
    "# sign the first input using the private key\n",
    "# sign the second input using the private key \n",
    "# print the transaction's serialization in hex\n",
    "# broadcast at http://testnet.blockchain.info/pushtx"
   ]
  }
 ],
 "metadata": {
  "kernelspec": {
   "display_name": "sysudv",
   "language": "python",
   "name": "python3"
  },
  "language_info": {
   "codemirror_mode": {
    "name": "ipython",
    "version": 3
   },
   "file_extension": ".py",
   "mimetype": "text/x-python",
   "name": "python",
   "nbconvert_exporter": "python",
   "pygments_lexer": "ipython3",
   "version": "3.9.16"
  }
 },
 "nbformat": 4,
 "nbformat_minor": 2
}
